{
  "_format": "hh-sol-artifact-1",
  "contractName": "ITAssetManager",
  "sourceName": "contracts/ITAssetManager.sol",
  "abi": [
    {
      "inputs": [],
      "stateMutability": "nonpayable",
      "type": "constructor"
    },
    {
      "inputs": [
        {
          "internalType": "uint256",
          "name": "assetId",
          "type": "uint256"
        }
      ],
      "name": "AssetNotFound",
      "type": "error"
    },
    {
      "inputs": [
        {
          "internalType": "string",
          "name": "paramName",
          "type": "string"
        }
      ],
      "name": "EmptyString",
      "type": "error"
    },
    {
      "inputs": [
        {
          "internalType": "address",
          "name": "addr",
          "type": "address"
        }
      ],
      "name": "InvalidAddress",
      "type": "error"
    },
    {
      "inputs": [
        {
          "internalType": "uint256",
          "name": "assetId",
          "type": "uint256"
        },
        {
          "internalType": "enum ITAssetManager.AssetStatus",
          "name": "currentStatus",
          "type": "uint8"
        }
      ],
      "name": "InvalidAssetStatus",
      "type": "error"
    },
    {
      "inputs": [
        {
          "internalType": "uint256",
          "name": "assetId",
          "type": "uint256"
        },
        {
          "internalType": "address",
          "name": "caller",
          "type": "address"
        }
      ],
      "name": "NotAssetOwner",
      "type": "error"
    },
    {
      "inputs": [
        {
          "internalType": "address",
          "name": "owner",
          "type": "address"
        }
      ],
      "name": "OwnableInvalidOwner",
      "type": "error"
    },
    {
      "inputs": [
        {
          "internalType": "address",
          "name": "account",
          "type": "address"
        }
      ],
      "name": "OwnableUnauthorizedAccount",
      "type": "error"
    },
    {
      "inputs": [],
      "name": "ReentrancyGuardReentrantCall",
      "type": "error"
    },
    {
      "inputs": [
        {
          "internalType": "string",
          "name": "serialNumber",
          "type": "string"
        }
      ],
      "name": "SerialNumberAlreadyExists",
      "type": "error"
    },
    {
      "anonymous": false,
      "inputs": [
        {
          "indexed": true,
          "internalType": "uint256",
          "name": "assetId",
          "type": "uint256"
        },
        {
          "indexed": false,
          "internalType": "uint256",
          "name": "carbonCredits",
          "type": "uint256"
        },
        {
          "indexed": false,
          "internalType": "uint256",
          "name": "timestamp",
          "type": "uint256"
        }
      ],
      "name": "AssetRecycled",
      "type": "event"
    },
    {
      "anonymous": false,
      "inputs": [
        {
          "indexed": true,
          "internalType": "uint256",
          "name": "assetId",
          "type": "uint256"
        },
        {
          "indexed": false,
          "internalType": "string",
          "name": "serialNumber",
          "type": "string"
        },
        {
          "indexed": false,
          "internalType": "string",
          "name": "model",
          "type": "string"
        },
        {
          "indexed": true,
          "internalType": "address",
          "name": "owner",
          "type": "address"
        }
      ],
      "name": "AssetRegistered",
      "type": "event"
    },
    {
      "anonymous": false,
      "inputs": [
        {
          "indexed": true,
          "internalType": "uint256",
          "name": "assetId",
          "type": "uint256"
        },
        {
          "indexed": false,
          "internalType": "string",
          "name": "ipfsHash",
          "type": "string"
        },
        {
          "indexed": false,
          "internalType": "uint256",
          "name": "timestamp",
          "type": "uint256"
        }
      ],
      "name": "AssetSanitized",
      "type": "event"
    },
    {
      "anonymous": false,
      "inputs": [
        {
          "indexed": true,
          "internalType": "uint256",
          "name": "assetId",
          "type": "uint256"
        },
        {
          "indexed": true,
          "internalType": "address",
          "name": "from",
          "type": "address"
        },
        {
          "indexed": true,
          "internalType": "address",
          "name": "to",
          "type": "address"
        },
        {
          "indexed": false,
          "internalType": "uint256",
          "name": "timestamp",
          "type": "uint256"
        }
      ],
      "name": "AssetTransferred",
      "type": "event"
    },
    {
      "anonymous": false,
      "inputs": [
        {
          "indexed": true,
          "internalType": "address",
          "name": "previousOwner",
          "type": "address"
        },
        {
          "indexed": true,
          "internalType": "address",
          "name": "newOwner",
          "type": "address"
        }
      ],
      "name": "OwnershipTransferred",
      "type": "event"
    },
    {
      "inputs": [],
      "name": "CARBON_CREDITS_PER_RECYCLE",
      "outputs": [
        {
          "internalType": "uint256",
          "name": "",
          "type": "uint256"
        }
      ],
      "stateMutability": "view",
      "type": "function"
    },
    {
      "inputs": [
        {
          "internalType": "uint256",
          "name": "",
          "type": "uint256"
        }
      ],
      "name": "assets",
      "outputs": [
        {
          "internalType": "uint256",
          "name": "id",
          "type": "uint256"
        },
        {
          "internalType": "string",
          "name": "serialNumber",
          "type": "string"
        },
        {
          "internalType": "string",
          "name": "model",
          "type": "string"
        },
        {
          "internalType": "enum ITAssetManager.AssetStatus",
          "name": "status",
          "type": "uint8"
        },
        {
          "internalType": "string",
          "name": "ipfsHash",
          "type": "string"
        },
        {
          "internalType": "address",
          "name": "technician",
          "type": "address"
        },
        {
          "internalType": "uint256",
          "name": "carbonCredits",
          "type": "uint256"
        },
        {
          "internalType": "address",
          "name": "owner",
          "type": "address"
        },
        {
          "internalType": "uint256",
          "name": "registrationTime",
          "type": "uint256"
        },
        {
          "internalType": "uint256",
          "name": "sanitizationTime",
          "type": "uint256"
        },
        {
          "internalType": "uint256",
          "name": "recyclingTime",
          "type": "uint256"
        }
      ],
      "stateMutability": "view",
      "type": "function"
    },
    {
      "inputs": [
        {
          "internalType": "uint256",
          "name": "assetId",
          "type": "uint256"
        }
      ],
      "name": "getAssetHistory",
      "outputs": [
        {
          "components": [
            {
              "internalType": "uint256",
              "name": "id",
              "type": "uint256"
            },
            {
              "internalType": "string",
              "name": "serialNumber",
              "type": "string"
            },
            {
              "internalType": "string",
              "name": "model",
              "type": "string"
            },
            {
              "internalType": "enum ITAssetManager.AssetStatus",
              "name": "status",
              "type": "uint8"
            },
            {
              "internalType": "string",
              "name": "ipfsHash",
              "type": "string"
            },
            {
              "internalType": "address",
              "name": "technician",
              "type": "address"
            },
            {
              "internalType": "uint256",
              "name": "carbonCredits",
              "type": "uint256"
            },
            {
              "internalType": "address",
              "name": "owner",
              "type": "address"
            },
            {
              "internalType": "uint256",
              "name": "registrationTime",
              "type": "uint256"
            },
            {
              "internalType": "uint256",
              "name": "sanitizationTime",
              "type": "uint256"
            },
            {
              "internalType": "uint256",
              "name": "recyclingTime",
              "type": "uint256"
            }
          ],
          "internalType": "struct ITAssetManager.Asset",
          "name": "asset",
          "type": "tuple"
        }
      ],
      "stateMutability": "view",
      "type": "function"
    },
    {
      "inputs": [
        {
          "internalType": "enum ITAssetManager.AssetStatus",
          "name": "status",
          "type": "uint8"
        },
        {
          "internalType": "uint256",
          "name": "offset",
          "type": "uint256"
        },
        {
          "internalType": "uint256",
          "name": "limit",
          "type": "uint256"
        }
      ],
      "name": "getAssetsByStatus",
      "outputs": [
        {
          "internalType": "uint256[]",
          "name": "assetIds",
          "type": "uint256[]"
        }
      ],
      "stateMutability": "view",
      "type": "function"
    },
    {
      "inputs": [],
      "name": "getTotalAssets",
      "outputs": [
        {
          "internalType": "uint256",
          "name": "",
          "type": "uint256"
        }
      ],
      "stateMutability": "view",
      "type": "function"
    },
    {
      "inputs": [],
      "name": "owner",
      "outputs": [
        {
          "internalType": "address",
          "name": "",
          "type": "address"
        }
      ],
      "stateMutability": "view",
      "type": "function"
    },
    {
      "inputs": [
        {
          "internalType": "uint256",
          "name": "assetId",
          "type": "uint256"
        },
        {
          "internalType": "string",
          "name": "wipeLogHash",
          "type": "string"
        }
      ],
      "name": "proveSanitization",
      "outputs": [],
      "stateMutability": "nonpayable",
      "type": "function"
    },
    {
      "inputs": [
        {
          "internalType": "uint256",
          "name": "assetId",
          "type": "uint256"
        }
      ],
      "name": "recycleAsset",
      "outputs": [],
      "stateMutability": "nonpayable",
      "type": "function"
    },
    {
      "inputs": [
        {
          "internalType": "string",
          "name": "serialNumber",
          "type": "string"
        },
        {
          "internalType": "string",
          "name": "model",
          "type": "string"
        }
      ],
      "name": "registerAsset",
      "outputs": [
        {
          "internalType": "uint256",
          "name": "assetId",
          "type": "uint256"
        }
      ],
      "stateMutability": "nonpayable",
      "type": "function"
    },
    {
      "inputs": [],
      "name": "renounceOwnership",
      "outputs": [],
      "stateMutability": "nonpayable",
      "type": "function"
    },
    {
      "inputs": [
        {
          "internalType": "string",
          "name": "serialNumber",
          "type": "string"
        }
      ],
      "name": "serialNumberExists",
      "outputs": [
        {
          "internalType": "bool",
          "name": "exists",
          "type": "bool"
        }
      ],
      "stateMutability": "view",
      "type": "function"
    },
    {
      "inputs": [
        {
          "internalType": "uint256",
          "name": "assetId",
          "type": "uint256"
        },
        {
          "internalType": "address",
          "name": "newOwner",
          "type": "address"
        }
      ],
      "name": "transferAsset",
      "outputs": [],
      "stateMutability": "nonpayable",
      "type": "function"
    },
    {
      "inputs": [
        {
          "internalType": "address",
          "name": "newOwner",
          "type": "address"
        }
      ],
      "name": "transferOwnership",
      "outputs": [],
      "stateMutability": "nonpayable",
      "type": "function"
    },
    {
      "inputs": [
        {
          "internalType": "string",
          "name": "serialNumber",
          "type": "string"
        }
      ],
      "name": "verifyAsset",
      "outputs": [
        {
          "components": [
            {
              "internalType": "uint256",
              "name": "id",
              "type": "uint256"
            },
            {
              "internalType": "string",
              "name": "serialNumber",
              "type": "string"
            },
            {
              "internalType": "string",
              "name": "model",
              "type": "string"
            },
            {
              "internalType": "enum ITAssetManager.AssetStatus",
              "name": "status",
              "type": "uint8"
            },
            {
              "internalType": "string",
              "name": "ipfsHash",
              "type": "string"
            },
            {
              "internalType": "address",
              "name": "technician",
              "type": "address"
            },
            {
              "internalType": "uint256",
              "name": "carbonCredits",
              "type": "uint256"
            },
            {
              "internalType": "address",
              "name": "owner",
              "type": "address"
            },
            {
              "internalType": "uint256",
              "name": "registrationTime",
              "type": "uint256"
            },
            {
              "internalType": "uint256",
              "name": "sanitizationTime",
              "type": "uint256"
            },
            {
              "internalType": "uint256",
              "name": "recyclingTime",
              "type": "uint256"
            }
          ],
          "internalType": "struct ITAssetManager.Asset",
          "name": "asset",
          "type": "tuple"
        }
      ],
      "stateMutability": "view",
      "type": "function"
    }
  ],
  "bytecode": "0x608060405234801561001057600080fd5b50338061003757604051631e4fbdf760e01b81526000600482015260240160405180910390fd5b6100408161004e565b50600180805560025561009e565b600080546001600160a01b038381166001600160a01b0319831681178455604051919092169283917f8be0079c531659141344cd1fd0a4f28419497f9722a3daafe3b4186f6b6457e09190a35050565b611bd0806100ad6000396000f3fe608060405234801561001057600080fd5b50600436106100ea5760003560e01c80639fe4000a1161008c578063cff5604711610066578063cff56047146101f9578063efe56e6c14610201578063f2fde38b14610214578063fa62ee8d1461022757600080fd5b80639fe4000a146101a9578063cbbe9caa146101bc578063cf35bdd0146101cf57600080fd5b8063715018a6116100c8578063715018a6146101515780638bded98d1461015b5780638c9be10c1461016e5780638da5cb5b1461018e57600080fd5b80634e58c977146100ef578063598f8371146101185780636e07302b1461013b575b600080fd5b6101026100fd36600461147e565b61023a565b60405161010f919061153e565b60405180910390f35b61012b61012636600461147e565b6104f5565b604051901515815260200161010f565b610143610524565b60405190815260200161010f565b61015961053a565b005b610102610169366004611625565b61054e565b61018161017c36600461163e565b6107de565b60405161010f9190611677565b6000546040516001600160a01b03909116815260200161010f565b6101436101b73660046116bb565b6109c6565b6101596101ca366004611727565b610d15565b6101e26101dd366004611625565b610e4c565b60405161010f9b9a99989796959493929190611773565b610143600a81565b61015961020f366004611625565b61104f565b61015961022236600461181c565b61112f565b610159610235366004611837565b61116d565b6102426113b8565b600060058484604051610256929190611863565b9081526020016040518091039020549050806000036102905760405163ad917ae760e01b8152600060048201526024015b60405180910390fd5b6003600082815260200190815260200160002060405180610160016040529081600082015481526020016001820180546102c990611873565b80601f01602080910402602001604051908101604052809291908181526020018280546102f590611873565b80156103425780601f1061031757610100808354040283529160200191610342565b820191906000526020600020905b81548152906001019060200180831161032557829003601f168201915b5050505050815260200160028201805461035b90611873565b80601f016020809104026020016040519081016040528092919081815260200182805461038790611873565b80156103d45780601f106103a9576101008083540402835291602001916103d4565b820191906000526020600020905b8154815290600101906020018083116103b757829003601f168201915b505050918352505060038281015460209092019160ff16908111156103fb576103fb611506565b600381111561040c5761040c611506565b815260200160048201805461042090611873565b80601f016020809104026020016040519081016040528092919081815260200182805461044c90611873565b80156104995780601f1061046e57610100808354040283529160200191610499565b820191906000526020600020905b81548152906001019060200180831161047c57829003601f168201915b505050918352505060058201546001600160a01b03908116602083015260068301546040830152600783015416606082015260088201546080820152600982015460a0820152600a9091015460c0909101529150505b92915050565b600060048383604051610509929190611863565b9081526040519081900360200190205460ff16905092915050565b6000600160025461053591906118c3565b905090565b610542611311565b61054c600061133e565b565b6105566113b8565b60036000838152602001908152602001600020604051806101600160405290816000820154815260200160018201805461058f90611873565b80601f01602080910402602001604051908101604052809291908181526020018280546105bb90611873565b80156106085780601f106105dd57610100808354040283529160200191610608565b820191906000526020600020905b8154815290600101906020018083116105eb57829003601f168201915b5050505050815260200160028201805461062190611873565b80601f016020809104026020016040519081016040528092919081815260200182805461064d90611873565b801561069a5780601f1061066f5761010080835404028352916020019161069a565b820191906000526020600020905b81548152906001019060200180831161067d57829003601f168201915b505050918352505060038281015460209092019160ff16908111156106c1576106c1611506565b60038111156106d2576106d2611506565b81526020016004820180546106e690611873565b80601f016020809104026020016040519081016040528092919081815260200182805461071290611873565b801561075f5780601f106107345761010080835404028352916020019161075f565b820191906000526020600020905b81548152906001019060200180831161074257829003601f168201915b505050918352505060058201546001600160a01b03908116602083015260068301546040830152600783015416606082015260088201546080820152600982015460a0820152600a9091015460c09091015280519091506000036107d95760405163ad917ae760e01b815260048101839052602401610287565b919050565b60606000821180156107f1575060648211155b61082d5760405162461bcd60e51b815260206004820152600d60248201526c125b9d985b1a59081b1a5b5a5d609a1b6044820152606401610287565b60008267ffffffffffffffff811115610848576108486118d6565b604051908082528060200260200182016040528015610871578160200160208202803683370190505b50905060008060015b6002548110801561088a57508583105b15610920578760038111156108a1576108a1611506565b600082815260036020819052604090912081015460ff16908111156108c8576108c8611506565b0361090e5786821061090057808484815181106108e7576108e76118ec565b6020908102919091010152826108fc81611902565b9350505b8161090a81611902565b9250505b8061091881611902565b91505061087a565b508167ffffffffffffffff81111561093a5761093a6118d6565b604051908082528060200260200182016040528015610963578160200160208202803683370190505b50935060005b828110156109ba57838181518110610983576109836118ec565b602002602001015185828151811061099d5761099d6118ec565b6020908102919091010152806109b281611902565b915050610969565b505050505b9392505050565b60006109d0611311565b6000849003610a11576040516318a996bb60e21b815260206004820152600c60248201526b39b2b934b0b6273ab6b132b960a11b6044820152606401610287565b6000829003610a4b576040516318a996bb60e21b81526020600482015260056024820152641b5bd9195b60da1b6044820152606401610287565b60048585604051610a5d929190611863565b9081526040519081900360200190205460ff1615610a9257848460405163429762bb60e01b8152600401610287929190611944565b60028054906000610aa283611902565b91905055905060405180610160016040528082815260200186868080601f016020809104026020016040519081016040528093929190818152602001838380828437600092019190915250505090825250604080516020601f8701819004810282018101909252858152918101919086908690819084018382808284376000920182905250938552505050602080830182905260408051808301825283815281850152606084018390526080840183905282546001600160a01b031660a08501524260c085015260e084018390526101009093018290528482526003815291902082518155908201516001820190610b9a90826119af565b5060408201516002820190610baf90826119af565b5060608201518160030160006101000a81548160ff02191690836003811115610bda57610bda611506565b021790555060808201516004820190610bf390826119af565b5060a08201516005820180546001600160a01b039283166001600160a01b03199182161790915560c0840151600684015560e08401516007840180549190931691161790556101008201516008820155610120820151600982015561014090910151600a90910155604051600190600490610c719088908890611863565b908152604051908190036020018120805492151560ff19909316929092179091558190600590610ca49088908890611863565b90815260405190819003602001902055610cc66000546001600160a01b031690565b6001600160a01b0316817fb51382179d2584eb7977fe3644f881853df1936d8aa5db231dbc759725896b5f87878787604051610d059493929190611a6f565b60405180910390a3949350505050565b60008381526003602052604081208054909103610d485760405163ad917ae760e01b815260048101859052602401610287565b600060038083015460ff1690811115610d6357610d63611506565b14610d8e576003810154604051639dac008560e01b815261028791869160ff90911690600401611aa1565b6000829003610dce576040516318a996bb60e21b815260206004820152600b60248201526a0eed2e0ca98dece90c2e6d60ab1b6044820152606401610287565b60038101805460ff1916600117905560048101610dec838583611ab5565b506005810180546001600160a01b03191633179055426009820181905560405185917f2d015cc18900816390b4181f3f0c4dcc70a0a9e5b1e7573ba168658c86164b8591610e3e918791879190611b76565b60405180910390a250505050565b60036020526000908152604090208054600182018054919291610e6e90611873565b80601f0160208091040260200160405190810160405280929190818152602001828054610e9a90611873565b8015610ee75780601f10610ebc57610100808354040283529160200191610ee7565b820191906000526020600020905b815481529060010190602001808311610eca57829003601f168201915b505050505090806002018054610efc90611873565b80601f0160208091040260200160405190810160405280929190818152602001828054610f2890611873565b8015610f755780601f10610f4a57610100808354040283529160200191610f75565b820191906000526020600020905b815481529060010190602001808311610f5857829003601f168201915b5050506003840154600485018054949560ff909216949193509150610f9990611873565b80601f0160208091040260200160405190810160405280929190818152602001828054610fc590611873565b80156110125780601f10610fe757610100808354040283529160200191611012565b820191906000526020600020905b815481529060010190602001808311610ff557829003601f168201915b50505060058401546006850154600786015460088701546009880154600a9098015496976001600160a01b0394851697939650919093169350908b565b611057611311565b6000818152600360205260408120805490910361108a5760405163ad917ae760e01b815260048101839052602401610287565b600160038083015460ff16908111156110a5576110a5611506565b146110d0576003810154604051639dac008560e01b815261028791849160ff90911690600401611aa1565b60038101805460ff19166002179055600a600682018190554281830181905560408051928352602083019190915283917fffd3f31b5386c7930642e51e9c8cb73abc5b7966dee967bd4cf51d85e0abf064910160405180910390a25050565b611137611311565b6001600160a01b03811661116157604051631e4fbdf760e01b815260006004820152602401610287565b61116a8161133e565b50565b61117561138e565b600082815260036020526040812080549091036111a85760405163ad917ae760e01b815260048101849052602401610287565b60078101546001600160a01b031633148015906111d057506000546001600160a01b03163314155b156111f757604051632f5d3abb60e11b815260048101849052336024820152604401610287565b6001600160a01b03821661122957604051634726455360e11b81526001600160a01b0383166004820152602401610287565b600160038083015460ff169081111561124457611244611506565b1415801561126b5750600260038083015460ff169081111561126857611268611506565b14155b15611296576003810154604051639dac008560e01b815261028791859160ff90911690600401611aa1565b6007810180546001600160a01b038481166001600160a01b0319831681179093556003808501805460ff1916909117905560405142815291169190829086907ff3ece9284d33275d9c297a27c91c816d5543b99eb1a60525f3cee810ed7200919060200160405180910390a4505061130d60018055565b5050565b6000546001600160a01b0316331461054c5760405163118cdaa760e01b8152336004820152602401610287565b600080546001600160a01b038381166001600160a01b0319831681178455604051919092169283917f8be0079c531659141344cd1fd0a4f28419497f9722a3daafe3b4186f6b6457e09190a35050565b6002600154036113b157604051633ee5aeb560e01b815260040160405180910390fd5b6002600155565b604051806101600160405280600081526020016060815260200160608152602001600060038111156113ec576113ec611506565b81526020016060815260200160006001600160a01b031681526020016000815260200160006001600160a01b031681526020016000815260200160008152602001600081525090565b60008083601f84011261144757600080fd5b50813567ffffffffffffffff81111561145f57600080fd5b60208301915083602082850101111561147757600080fd5b9250929050565b6000806020838503121561149157600080fd5b823567ffffffffffffffff8111156114a857600080fd5b6114b485828601611435565b90969095509350505050565b6000815180845260005b818110156114e6576020818501810151868301820152016114ca565b506000602082860101526020601f19601f83011685010191505092915050565b634e487b7160e01b600052602160045260246000fd5b6004811061153a57634e487b7160e01b600052602160045260246000fd5b9052565b6020815281516020820152600060208301516101608060408501526115676101808501836114c0565b91506040850151601f198086850301606087015261158584836114c0565b93506060870151915061159b608087018361151c565b60808701519150808685030160a0870152506115b783826114c0565b92505060a08501516115d460c08601826001600160a01b03169052565b5060c085015160e085015260e08501516101006115fb818701836001600160a01b03169052565b86015161012086810191909152860151610140808701919091529095015193019290925250919050565b60006020828403121561163757600080fd5b5035919050565b60008060006060848603121561165357600080fd5b83356004811061166257600080fd5b95602085013595506040909401359392505050565b6020808252825182820181905260009190848201906040850190845b818110156116af57835183529284019291840191600101611693565b50909695505050505050565b600080600080604085870312156116d157600080fd5b843567ffffffffffffffff808211156116e957600080fd5b6116f588838901611435565b9096509450602087013591508082111561170e57600080fd5b5061171b87828801611435565b95989497509550505050565b60008060006040848603121561173c57600080fd5b83359250602084013567ffffffffffffffff81111561175a57600080fd5b61176686828701611435565b9497909650939450505050565b60006101608d835280602084015261178d8184018e6114c0565b905082810360408401526117a1818d6114c0565b90506117b0606084018c61151c565b82810360808401526117c2818b6114c0565b6001600160a01b03998a1660a085015260c084019890985250509390951660e0840152610100830191909152610120820152610140019190915295945050505050565b80356001600160a01b03811681146107d957600080fd5b60006020828403121561182e57600080fd5b6109bf82611805565b6000806040838503121561184a57600080fd5b8235915061185a60208401611805565b90509250929050565b8183823760009101908152919050565b600181811c9082168061188757607f821691505b6020821081036118a757634e487b7160e01b600052602260045260246000fd5b50919050565b634e487b7160e01b600052601160045260246000fd5b818103818111156104ef576104ef6118ad565b634e487b7160e01b600052604160045260246000fd5b634e487b7160e01b600052603260045260246000fd5b600060018201611914576119146118ad565b5060010190565b81835281816020850137506000828201602090810191909152601f909101601f19169091010190565b60208152600061195860208301848661191b565b949350505050565b601f8211156119aa57600081815260208120601f850160051c810160208610156119875750805b601f850160051c820191505b818110156119a657828155600101611993565b5050505b505050565b815167ffffffffffffffff8111156119c9576119c96118d6565b6119dd816119d78454611873565b84611960565b602080601f831160018114611a1257600084156119fa5750858301515b600019600386901b1c1916600185901b1785556119a6565b600085815260208120601f198616915b82811015611a4157888601518255948401946001909101908401611a22565b5085821015611a5f5787850151600019600388901b60f8161c191681555b5050505050600190811b01905550565b604081526000611a8360408301868861191b565b8281036020840152611a9681858761191b565b979650505050505050565b828152604081016109bf602083018461151c565b67ffffffffffffffff831115611acd57611acd6118d6565b611ae183611adb8354611873565b83611960565b6000601f841160018114611b155760008515611afd5750838201355b600019600387901b1c1916600186901b178355611b6f565b600083815260209020601f19861690835b82811015611b465786850135825560209485019460019092019101611b26565b5086821015611b635760001960f88860031b161c19848701351681555b505060018560011b0183555b5050505050565b604081526000611b8a60408301858761191b565b905082602083015294935050505056fea2646970667358221220e2f29e7a0eee2c3059e244d4854d7daf4a2acca481ea881b1989f32d2ca8904064736f6c63430008140033",
  "linkReferences": {},
  "deployedLinkReferences": {}
}